:020000040800F2
:1000000000500020A1020008F1020008F1020008DF
:10001000F1020008F1020008F102000800000000EF
:10002000000000000000000000000000F1020008D5
:10003000F102000800000000F1020008F1020008CF
:10004000F1020008F1020008F1020008F1020008C4
:10005000F1020008F1020008F1020008F1020008B4
:10006000F1020008F1020008F1020008F1020008A4
:10007000F1020008F1020008F1020008F102000894
:10008000F1020008F1020008F1020008F102000884
:10009000F1020008F1020008F1020008F102000874
:1000A000F1020008F1020008F1020008F102000864
:1000B000F1020008F1020008F1020008F102000854
:1000C000F1020008F1020008F1020008F102000844
:1000D000F1020008F1020008F1020008F102000834
:1000E000F1020008F102000800000000F10200081F
:1000F000F1020008F1020008F1020008F102000814
:10010000F1020008F1020008F1020008F102000803
:10011000F1020008F1020008F1020008F1020008F3
:10012000F1020008F1020008F1020008F1020008E3
:100130000348044B834202D0034B03B11847704776
:10014000300400203004002000000000054806496B
:100150000B1AD90F01EBA301491002D0034B03B1D5
:1001600018477047300400203004002000000000D1
:1001700010B5064C237843B9FFF7DAFF044B13B1EF
:100180000448AFF300800123237010BD3004002029
:10019000000000000803000808B5044B1BB1044927
:1001A0000448AFF30080BDE80840CFE7000000003E
:1001B0003404002008030008002301461A461846AC
:1001C00000F03AB838B5084B084D5B1B9C1007D0BF
:1001D000043B1D44013C55F804399847002CF9D1E3
:1001E000BDE8384000F096B8300300082C03000842
:1001F00070B50D4E0D4D761BB61006D0002455F887
:10020000043B01349847A642F9D1094E094D00F04C
:100210007BF8761BB61006D0002455F8043B013459
:100220009847A642F9D170BD2403000824030008B2
:100230002C0300082403000870B5174C2568D5F876
:100240004841DCB165681F2D23DC80B14FF0010C03
:1002500004EB850ECEF88820D4F888610CFA05F2FC
:1002600016430228C4F88861CEF808310BD06B1C05
:1002700002356360002044F8251070BD05F5A674B2
:10028000C5F84841DEE7D4F88C311343C4F88C310B
:10029000EDE74FF0FF3070BD20030008FEE700BF20
:1002A0000D488546AFF300800C480D490D4A0023E8
:1002B00002E0D458C4500433C4188C42F9D30A4A1B
:1002C0000A4C002301E013600432A242FBD3FFF783
:1002D0008FFFFFF7E3FFFEE7005000200000002043
:1002E0003004002030030008300400204C040020BB
:1002F000FEE70000024B13B10248FFF75DBF7047F5
:1003000000000000C5010008F8B500BFF8BC08BC3B
:100310009E467047F8B500BFF8BC08BC9E467047C3
:0403200008000020B1
:08032400F50200089901000830
:04032C007101000853
:10033000080000200000000000000000F40200207F
:100340005C030020C4030020000000000000000047
:10035000000000000000000000000000000000009D
:10036000000000000000000000000000000000008D
:10037000000000000000000000000000000000007D
:10038000000000000000000000000000000000006D
:10039000000000000000000000000000000000005D
:1003A000000000000000000000000000000000004D
:1003B000000000000000000000000000000000003D
:1003C000000000000000000000000000000000002D
:1003D000000000000000000000000000000000001D
:1003E00001000000000000000E33CDAB34126DE6BA
:1003F000ECDE05000B000000000000000000000023
:1004000000000000000000000000000000000000EC
:1004100000000000000000000000000000000000DC
:1004200000000000000000000000000000000000CC
:1004300000000000000000000000000000000000BC
:04000005080002A14C
:00000001FF
